S010000050726F6A656374312E737265630C
S11300000C9434000C9446000C9446000C94460066
S11300100C9446000C94DE010C9446000C944600AB
S11300200C9446000C9446000C9446000C94460034
S11300300C9446000C9446000C9446000C94460024
S11300400C94C0030C9446000C94F2050C944600E6
S11300500C9446000C9446000C9446000C94460004
S11300600C9446000C94460011241FBECFEFD8E038
S1130070DEBFCDBF21E0A0E0B1E001C01D92A833F6
S1130080B207E1F70E941D010C9424080C940000AF
S1130090CF93DF93CDB7DEB78EE790E023E0FC018A
S11300A020838CE790E02CE730E0F9012081206484
S11300B0FC0120838AE790E02AE730E0F9012081FF
S11300C02760FC01208384E690E024E630E0F90117
S11300D020812E7FFC0120838AE790E02AE730E02C
S11300E0F90120812068FC0120830000DF91CF9179
S11300F00895CF93DF9300D01F92CDB7DEB78983E5
S11301007B836A838CE790E02CE730E0F90120815F
S1130110207FFC0120838981823048F58CE790E0C0
S11301202CE730E0F90130812981232BFC01208365
S11301308AE790E02AE730E0F90120812064FC019D
S1130140208300008AE790E0FC018081882F90E002
S113015080749927892BB1F788E790E0FC0120810E
S113016031818A819B81FC013183208301C000009D
S11301700F900F900F90DF91CF910895CF93DF935D
S1130180CDB7DEB78AE790E02AE730E0F9012081B5
S11301902F77FC0120830000DF91CF910895CF9346
S11301A0DF93CDB7DEB78AE790E02AE730E0F901C4
S11301B020812068FC0120830000DF91CF91089505
S11301C0CF93DF93CDB7DEB78AE290E02AE230E046
S11301D0F90120812863FC0120830000DF91CF9185
S11301E00895CF93DF931F92CDB7DEB789838BE257
S11301F090E02BE230E0F90130812981232BFC01CE
S1130200208300000F90DF91CF910895CF93DF9367
S11302101F92CDB7DEB789838BE290E02BE230E00A
S1130220F9012081322F298120952323FC01208389
S113023000000F90DF91CF910895CF93DF93CDB756
S1130240DEB70E94FE030E94F1010E94B5050E94E0
S113025048000E9493010E94E0000E94820183E50D
S11302600E94D70585E60E94D70584E70E94D7053A
S113027085E70E94D70580E70E94D70580E20E94A7
S1130280D70583E60E94D7058FE60E94D7058DE641
S11302900E94D70580E70E94D7058CE60E94D70507
S11302A085E60E94D70584E70E94D70585E60E946B
S11302B0D70584E60E94D7058DE00E94D70548EC57
S11302C050E060E070E08CED94E00E94100442E3A2
S11302D050E06AE070E080EF94E00E9410044FE088
S11302E050E064E170E08AE295E00E94100448EC7A
S11302F050E064E670E08CE895E00E9410040E94EF
S11303006E04FDCFCF93DF93CDB7DEB788E290E0E4
S113031028E230E0F90120812460FC012083000000
S1130320DF91CF910895CF93DF93CDB7DEB788E601
S113033090E028E630E0F90120812460FC0120836C
S11303408DE690E02DE630E0F90120812460FC0187
S1130350208378940000DF91CF910895CF93DF93A9
S1130360CDB7DEB788E30E9406010E94BE0083E594
S113037090E023E530E0F9012081217F2460FC0135
S11303802083F89483E590E023E530E0F9012081AF
S11303902160FC0120837894889583E590E023E52F
S11303A030E0F90120812E7FFC0120830E948C051E
S11303B00E94CF000000DF91CF9108951F920F9209
S11303C000905F000F921124CF93DF93CDB7DEB777
S11303D00000DF91CF910F9000925F000F901F906B
S11303E01895CF93DF93CDB7DEB784E290E024E293
S11303F030E0F90120812260FC01208380E890E054
S113040020E830E0F90120812068FC01208380E8A5
S113041090E020E830E0F90120812260FC01208393
S113042081E890E021E830E0F90120812861FC01B5
S1130430208386E890E02FE330E0FC0131832083C1
S113044048E850E086E890E0FC018081918196952F
S11304508795969587959C01ABE7B4E10E941508B2
S113046096958795FA019183808381E080930001BA
S11304700000DF91CF910895CF93DF931F92CDB702
S1130480DEB789838981882319F40E94A30231C0CD
S11304908981853610F084E6898380910001882360
S11304A011F40E947D0286E890E02FE330E0FC0125
S11304B03183208348E850E086E890E0FC016081C5
S11304C071818981282F30E0629FC001639F900D64
S11304D0729F900D112496958795969587959C010A
S11304E0ABE7B4E10E94150896958795FA019183CC
S11304F080830F90DF91CF910895CF93DF93CDB791
S1130500DEB784E290E024E230E0F9012081226049
S1130510FC01208380E890E020E830E0F9012081AC
S11305202068FC01208381E890E021E830E0F901B3
S113053020812160FC01208381E080930001000080
S1130540DF91CF910895CF93DF93CDB7DEB780E8E5
S113055090E020E830E0F90120812F77FC0120832E
S113056081E890E021E830E0F90120812E7FFC0150
S1130570208385E290E025E230E0F90120812D7F9F
S1130580FC012083109200010000DF91CF910895B7
S1130590CF93DF93CDB7DEB785E490E025E430E078
S11305A0F90120812160FC0120838EE690E02EE693
S11305B030E0F90120812160FC012083789400005F
S11305C0DF91CF910895CF93DF9300D0CDB7DEB7FD
S11305D01A82198215C029813A81C901880F991F8D
S11305E0880F991F880F991F821B930B8C5F9E4F56
S11305F0FC011182108289819A8101969A838983F0
S113060089819A8106973CF300000F900F90DF9147
S1130610CF910895CF93DF9300D0CDB7DEB71A8280
S11306201982A3C029813A81C901880F991F880FB3
S1130630991F880F991F821B930B8C5F9E4FFC019F
S113064080819181892B09F48BC029813A81C90168
S1130650880F991F880F991F880F991F821B930B6E
S11306608A5F9E4FFC0180819181892B09F055C0DE
S113067029813A81C901880F991F880F991F880F12
S1130680991F821B930B865F9E4FFC0180818F5FB5
S1130690482F29813A81C901880F991F880F991F12
S11306A0880F991F821B930B865F9E4FFC0140832A
S11306B029813A81C901880F991F880F991F880FD2
S11306C0991F821B930B885F9E4FFC01808191814F
S11306D0892B09F445C029813A81C901880F991FE2
S11306E0880F991F880F991F821B930B885F9E4F59
S11306F0FC0180819181AC0129813A81C901880F73
S1130700991F880F991F880F991F821B930B8A5F6B
S11307109E4FFC015183408323C029813A81C90142
S1130720880F991F880F991F880F991F821B930B9D
S11307308A5F9E4FFC0180819181AC014150510937
S113074029813A81C901880F991F880F991F880F41
S1130750991F821B930B8A5F9E4FFC015183408338
S113076089819A8101969A83898389819A810697DE
S11307700CF458CF00000F900F90DF91CF910895A3
S11307801F920F9200905F000F9211242F933F93BA
S11307904F935F936F937F938F939F93AF93BF9385
S11307A0EF93FF93CF93DF93CDB7DEB780912F0103
S11307B0909130019C012F5F3F4F30933001209383
S11307C02F01CE9730F00E940A031092300110924C
S11307D02F010000DF91CF91FF91EF91BF91AF9175
S11307E09F918F917F916F915F914F913F912F9145
S11307F00F9000925F000F901F901895CF93DF9396
S1130800CDB7DEB71092300110922F011092030180
S11308100E94E3020E94C8020000DF91CF91089574
S1130820CF93DF9300D000D000D0CDB7DEB79A834A
S113083089837C836B835E834D838091030186303F
S113084008F042C080910301282F30E0C901880FCD
S1130850991F880F991F880F991F821B930B8C5F18
S11308609E4F29813A81FC013183208380910301C9
S1130870282F30E0C901880F991F880F991F880F0E
S1130880991F821B930B8A5F9E4F2B813C81FC0135
S11308903183208380910301282F30E04D815E81D4
S11308A0C901880F991F880F991F880F991F821BF0
S11308B0930B885F9E4FFC01518340838091030119
S11308C08F5F8093030101C0000026960FB6F89451
S11308D0DEBF0FBECDBFDF91CF910895CF93DF93DD
S11308E000D0CDB7DEB71A8219825BC029813A8164
S11308F0C901880F991F880F991F880F991F821BA0
S1130900930B8C5F9E4FFC0180819181892B09F4AC
S113091043C029813A81C901880F991F880F991F03
S1130920880F991F821B930B865F9E4FFC01808169
S1130930181694F529813A81C901880F991F880FE7
S1130940991F880F991F821B930B8C5F9E4FFC018C
S113095080819181FC01099529813A81C901880F1F
S1130960991F880F991F880F991F821B930B865F0D
S11309709E4FFC0180818150482F29813A81C90111
S1130980880F991F880F991F880F991F821B930B3B
S1130990865F9E4FFC01408389819A8101969A83E8
S11309A0898389819A8106970CF4A0CF00000F9067
S11309B00F90DF91CF910895CF93DF93CDB7DEB73A
S11309C089E290E0FC018081882F90E0847099276F
S11309D0892B11F00E94AE010000DF91CF910895A0
S11309E0CF93DF93CDB7DEB786E290E0FC01808140
S11309F0882F90E084709927892B31F461E371E0AA
S1130A0081E00E94790022C00E94CE05882F90E0E8
S1130A10092E000CAA0BBB0BBC01CD010E941C07C4
S1130A20DC01CB0124E13EEA43E251E4BC01CD0107
S1130A300E94A807DC01CB01BC01CD010E94EB069A
S1130A40DC01CB0190933201809331010000DF91EE
S1130A50CF910895CF93DF93CDB7DEB765E371E00F
S1130A6080E00E947900209131013091320180911F
S1130A70350190913601A901481B590BCA018038F0
S1130A80910518F410922E0112C020913501309175
S1130A90360180913101909132018217930720F43D
S1130AA082E080932E0103C081E080932E01809127
S1130AB0310190913201CC01A0E0B0E0BC01CD0144
S1130AC00E941A07DC01CB0120E030E048EC52E43C
S1130AD0BC01CD010E94A807DC01CB0120E030E07D
S1130AE040E854E4BC01CD010E947906DC01CB014D
S1130AF0BC01CD010E94EB06DC01CB0190933401D3
S1130B008093330180913301909134010E943C021F
S1130B100000DF91CF910895CF93DF93CDB7DEB777
S1130B2080912E01882F90E08130910569F0823008
S1130B30910589F0892B09F015C088E20E9406010D
S1130B4080E10E94F1000EC080E30E94060188E06B
S1130B500E94F10007C088E10E94060180E20E9421
S1130B60F1000000DF91CF910895CF93DF93CDB7CB
S1130B70DEB784EC90E027E630E0FC01318320838B
S1130B8081EC90E021EC30E0F90120812869FC013E
S1130B90208378940000DF91CF910895CF93DF9361
S1130BA0CDB7DEB780913701DF91CF910895CF9310
S1130BB0DF931F92CDB7DEB78983000080EC90E00D
S1130BC0FC018081882F90E080729927892BB1F3F2
S1130BD086EC90E02981FC01208300000F90DF91D6
S1130BE0CF9108951F920F9200905F000F921124ED
S1130BF02F933F934F935F936F937F938F939F9321
S1130C00AF93BF93EF93FF93CF93DF931F92CDB72F
S1130C10DEB786EC90E0FC01808189838981803392
S1130C20D8F089818A33C0F4809101019091020146
S1130C30880F991F9C01220F331F220F331F280F87
S1130C40391F8981882F90E0820F931FC09790935A
S1130C5002018093010137C089818D30D9F48091DC
S1130C6001019091020185369105A0F48091010162
S1130C7090910201809337011092020110920101B8
S1130C808FE60E94D7058BE60E94D7058DE00E946F
S1130C90D70519C080E20E94D70585E60E94D705D2
S1130CA082E70E94D70582E70E94D7058FE60E945B
S1130CB0D70582E70E94D7058DE00E94D7051092E0
S1130CC002011092010100000F90DF91CF91FF917A
S1130CD0EF91BF91AF919F918F917F916F915F91B0
S1130CE04F913F912F910F9000925F000F901F90B2
S1130CF018950E948D060C946E070E94670758F0A1
S1130D000E94600740F029F45F3F29F00C945707D4
S1130D1051110C94A2070C945D070E947F0768F39D
S1130D209923B1F3552391F3951B550BBB27AA27A0
S1130D3062177307840738F09F5F5F4F220F331FDA
S1130D40441FAA1FA9F335D00E2E3AF0E0E832D0A2
S1130D5091505040E695001CCAF72BD0FE2F29D0A5
S1130D60660F771F881FBB1F261737074807AB0777
S1130D70B0E809F0BB0B802DBF01FF2793585F4FEC
S1130D803AF09E3F510578F00C9457070C94A20753
S1130D905F3FE4F3983ED4F3869577956795B795CE
S1130DA0F7959F5FC9F7880F911D9695879597F9D9
S1130DB00895E1E0660F771F881FBB1F6217730752
S1130DC08407BA0720F0621B730B840BBA0BEE1F67
S1130DD088F7E09508950E94870788F09F5798F058
S1130DE0B92F9927B751B0F0E1F0660F771F881F2C
S1130DF0991F1AF0BA95C9F714C0B13091F00E9446
S1130E00A107B1E008950C94A107672F782F8827D4
S1130E10B85F39F0B93FCCF3869577956795B3956C
S1130E20D9F73EF490958095709561957F4F8F4FDB
S1130E309F4F0895E89409C097FB3EF490958095E0
S1130E40709561957F4F8F4F9F4F9923A9F0F92F8C
S1130E5096E9BB279395F695879577956795B7950A
S1130E60F111F8CFFAF4BB0F11F460FF1BC06F5FF0
S1130E707F4F8F4F9F4F16C0882311F096E911C002
S1130E80772321F09EE8872F762F05C0662371F023
S1130E9096E8862F70E060E02AF09A95660F771F37
S1130EA0881FDAF7880F9695879597F9089597F92B
S1130EB09F6780E870E060E008959FEF80EC0895FC
S1130EC000240A9416161706180609060895002425
S1130ED00A9412161306140605060895092E03949F
S1130EE0000C11F4882352F0BB0F40F4BF2B11F413
S1130EF060FF04C06F5F7F4F8F4F9F4F089557FD72
S1130F009058440F551F59F05F3F71F04795880F73
S1130F1097FB991F61F09F3F79F08795089512160A
S1130F2013061406551FF2CF4695F1DF08C01616B6
S1130F3017061806991FF1CF869571056105089467
S1130F400895E894BB2766277727CB0197F908957E
S1130F500E94BB070C946E070E94600738F00E9441
S1130F60670720F0952311F00C9457070C945D0744
S1130F7011240C94A2070E947F0770F3959FC1F37C
S1130F80950F50E0551F629FF001729FBB27F00D33
S1130F90B11D639FAA27F00DB11DAA1F649F662788
S1130FA0B00DA11D661F829F2227B00DA11D621FD7
S1130FB0739FB00DA11D621F839FA00D611D221F91
S1130FC0749F3327A00D611D231F849F600D211D75
S1130FD0822F762F6A2F11249F5750409AF0F1F0F8
S1130FE088234AF0EE0FFF1FBB1F661F771F881F61
S1130FF091505040A9F79E3F510580F00C9457073B
S11310000C94A2075F3FE4F3983ED4F3869577955A
S11310106795B795F795E7959F5FC1F7FE2B880F06
S1131020911D9695879597F90895A29FB001B39F56
S1131030C001A39F700D811D1124911DB29F700DDD
S10F1040811D1124911D0895F894FFCF28
S9030000FC
