S010000050726F6A656374312E737265630C
S11300000C9434000C9446000C9446000C94460066
S11300100C9446000C94E7010C9446000C944600A2
S11300200C9446000C9446000C9446000C94460034
S11300300C9446000C9446000C9446000C94460024
S11300400C94C9030C9446000C94F7050C944600D8
S11300500C9446000C9446000C9446000C94460004
S11300600C9446000C94460011241FBECFEFD8E038
S1130070DEBFCDBF21E0A0E0B1E001C01D92A633F8
S1130080B207E1F70E941D010C94B7070C9400001D
S1130090CF93DF93CDB7DEB78EE790E023E0FC018A
S11300A020838CE790E02CE730E0F9012081206484
S11300B0FC0120838AE790E02AE730E0F9012081FF
S11300C02760FC01208384E690E024E630E0F90117
S11300D020812E7FFC0120838AE790E02AE730E02C
S11300E0F90120812068FC0120830000DF91CF9179
S11300F00895CF93DF9300D01F92CDB7DEB78983E5
S11301007B836A838CE790E02CE730E0F90120815F
S1130110207FFC0120838981823048F58CE790E0C0
S11301202CE730E0F90130812981232BFC01208365
S11301308AE790E02AE730E0F90120812064FC019D
S1130140208300008AE790E0FC018081882F90E002
S113015080749927892BB1F788E790E0FC0120810E
S113016031818A819B81FC013183208301C000009D
S11301700F900F900F90DF91CF910895CF93DF935D
S1130180CDB7DEB78AE790E02AE730E0F9012081B5
S11301902F77FC0120830000DF91CF910895CF9346
S11301A0DF93CDB7DEB78AE790E02AE730E0F901C4
S11301B020812068FC0120830000DF91CF91089505
S11301C0CF93DF93CDB7DEB78AE290E02AE230E046
S11301D0F90120812863FC0120830000DF91CF9185
S11301E00895CF93DF931F92CDB7DEB789838BE257
S11301F090E02BE230E0F90130812981232BFC01CE
S1130200208300000F90DF91CF910895CF93DF9367
S11302101F92CDB7DEB789838BE290E02BE230E00A
S1130220F9012081322F298120952323FC01208389
S113023000000F90DF91CF910895CF93DF93CDB756
S1130240DEB787E290E027E230E0F9012081206206
S1130250FC0120830E9407040E94FA010E94BA054F
S11302600E9448000E949C010E94E0000E948B01B1
S113027083E50E94DC0585E60E94DC0584E70E9494
S1130280DC0585E70E94DC0580E70E94DC0580E24E
S11302900E94DC0583E60E94DC058FE60E94DC05F3
S11302A08DE60E94DC0580E70E94DC058CE60E9456
S11302B0DC0585E60E94DC0584E70E94DC0585E612
S11302C00E94DC0584E60E94DC058DE00E94DC05CA
S11302D048EC50E060E070E085EE94E00E94190480
S11302E042E350E06AE070E089EF94E00E94190470
S11302F04FE050E064E170E083E395E00E9419046C
S113030048EC50E064E670E081E995E00E9419044D
S11303100E947704FDCFCF93DF93CDB7DEB788E299
S113032090E028E230E0F90120812460FC01208380
S11303300000DF91CF910895CF93DF93CDB7DEB75F
S113034088E690E028E630E0F90120812460FC0191
S113035020838DE690E02DE630E0F90120812460D1
S1130360FC01208378940000DF91CF910895CF930E
S1130370DF93CDB7DEB788E30E9406010E94BE007A
S113038083E590E023E530E0F9012081217F2460BA
S1130390FC012083F89483E590E023E530E0F90143
S11303A020812160FC0120837894889583E590E086
S11303B023E530E0F90120812E7FFC0120830E9497
S11303C091050E94CF000000DF91CF9108951F9204
S11303D00F9200905F000F921124CF93DF93CDB75B
S11303E0DEB70000DF91CF910F9000925F000F9075
S11303F01F901895CF93DF93CDB7DEB784E290E0DA
S113040024E230E0F90120812260FC01208380E8AD
S113041090E020E830E0F90120812068FC0120838D
S113042080E890E020E830E0F90120812260FC01BE
S1130430208381E890E021E830E0F90120812861FF
S1130440FC01208386E890E02FE330E0FC01318357
S1130450208348E850E086E890E0FC0180819181A7
S113046096958795969587959C01ABE7B4E10E9494
S1130470A80796958795FA019183808381E08093FC
S113048000010000DF91CF910895CF93DF931F9275
S1130490CDB7DEB789838981882319F40E94AC0221
S11304A031C08981853610F084E68983809100010A
S11304B0882311F40E94860286E890E02FE330E05E
S11304C0FC013183208348E850E086E890E0FC0199
S11304D0608171818981282F30E0629FC001639F10
S11304E0900D729F900D11249695879596958795FA
S11304F09C01ABE7B4E10E94A80796958795FA01A1
S1130500918380830F90DF91CF910895CF93DF93F0
S1130510CDB7DEB784E290E024E230E0F901208137
S11305202260FC01208380E890E020E830E0F901BB
S113053020812068FC01208381E890E021E830E0FC
S1130540F90120812160FC01208381E08093000176
S11305500000DF91CF910895CF93DF93CDB7DEB73D
S113056080E890E020E830E0F90120812F77FC0159
S1130570208381E890E021E830E0F90120812E7F9A
S1130580FC01208385E290E025E230E0F90120813E
S11305902D7FFC012083109200010000DF91CF9198
S11305A00895CF93DF93CDB7DEB785E490E025E4DB
S11305B030E0F90120812160FC0120838EE690E087
S11305C02EE630E0F90120812160FC01208378943B
S11305D00000DF91CF910895CF93DF9300D0CDB782
S11305E0DEB71A82198215C029813A81C901880FA0
S11305F0991F880F991F880F991F821B930B8C5F7B
S11306009E4FFC011182108289819A8101969A83FE
S1130610898389819A8106973CF300000F900F909B
S1130620DF91CF910895CF93DF9300D0CDB7DEB79C
S11306301A821982A3C029813A81C901880F991F9E
S1130640880F991F880F991F821B930B8C5F9E4FF5
S1130650FC0180819181892B09F48BC029813A8125
S1130660C901880F991F880F991F880F991F821B32
S1130670930B8A5F9E4FFC0180819181892B09F045
S113068055C029813A81C901880F991F880F991F84
S1130690880F991F821B930B865F9E4FFC018081FC
S11306A08F5F482F29813A81C901880F991F880FCC
S11306B0991F880F991F821B930B865F9E4FFC0125
S11306C0408329813A81C901880F991F880F991F96
S11306D0880F991F821B930B885F9E4FFC018081BA
S11306E09181892B09F445C029813A81C901880F78
S11306F0991F880F991F880F991F821B930B885F7E
S11307009E4FFC0180819181AC0129813A81C9010C
S1130710880F991F880F991F880F991F821B930BAD
S11307208A5F9E4FFC015183408323C029813A8113
S1130730C901880F991F880F991F880F991F821B61
S1130740930B8A5F9E4FFC0180819181AC014150E3
S1130750510929813A81C901880F991F880F991F6E
S1130760880F991F821B930B8A5F9E4FFC01518354
S1130770408389819A8101969A83898389819A81A8
S113078006970CF458CF00000F900F90DF91CF9193
S113079008951F920F9200905F000F9211242F93DF
S11307A03F934F935F936F937F938F939F93AF93F5
S11307B0BF93EF93FF93CF93DF93CDB7DEB78091D1
S11307C02F01909130019C012F5F3F4F30933001F6
S11307D020932F01CE9730F00E9413031092300122
S11307E010922F010000DF91CF91FF91EF91BF9103
S11307F0AF919F918F917F916F915F914F913F91B5
S11308002F910F9000925F000F901F901895CF9337
S1130810DF93CDB7DEB71092300110922F01109202
S113082003010E94EC020E94D1020000DF91CF91EB
S11308300895CF93DF9300D000D000D0CDB7DEB7BA
S11308409A8389837C836B835E834D8380910301C8
S1130850863008F042C080910301282F30E0C9019E
S1130860880F991F880F991F880F991F821B930B5C
S11308708C5F9E4F29813A81FC01318320838091D2
S11308800301282F30E0C901880F991F880F991F91
S1130890880F991F821B930B8A5F9E4F2B813C818B
S11308A0FC013183208380910301282F30E04D81A6
S11308B05E81C901880F991F880F991F880F991F9E
S11308C0821B930B885F9E4FFC0151834083809170
S11308D003018F5F8093030101C0000026960FB6C9
S11308E0F894DEBF0FBECDBFDF91CF910895CF93B3
S11308F0DF9300D0CDB7DEB71A8219825BC029819D
S11309003A81C901880F991F880F991F880F991F71
S1130910821B930B8C5F9E4FFC0180819181892BFC
S113092009F443C029813A81C901880F991F880FAE
S1130930991F880F991F821B930B865F9E4FFC01A2
S11309408081181694F529813A81C901880F991F6D
S1130950880F991F880F991F821B930B8C5F9E4FE2
S1130960FC0180819181FC01099529813A81C901A9
S1130970880F991F880F991F880F991F821B930B4B
S1130980865F9E4FFC0180818150482F29813A81E6
S1130990C901880F991F880F991F880F991F821BFF
S11309A0930B865F9E4FFC01408389819A81019657
S11309B09A83898389819A8106970CF4A0CF0000D9
S11309C00F900F90DF91CF910895CF93DF93CDB720
S11309D0DEB789E290E0FC018081882F90E084708A
S11309E09927892B11F00E94B7010000DF91CF9164
S11309F00895CF93DF93CDB7DEB786E290E0FC0194
S1130A008081882F90E084709927892B31F461E3E9
S1130A1071E081E00E94790022C00E94D305882FF2
S1130A2090E0092E000CAA0BBB0BBC01CD010E9467
S1130A30AF06DC01CB0124E13EEA43E251E4BC0110
S1130A40CD010E941307DC01CB01BC01CD010E9442
S1130A507E06DC01CB0190933201809331010000CA
S1130A60DF91CF910895CF93DF93CDB7DEB763E3E2
S1130A7071E080E00E9479002091310130913201CF
S1130A808091330190913401A901481B590BCA018B
S1130A908115924058F520913101309132018091B5
S1130AA0330190913401A901481B590BCA018038C4
S1130AB0910518F410922E0112C020913301309147
S1130AC0340180913101909132018217930720F40F
S1130AD082E080932E0103C081E080932E018091F7
S1130AE03101909132010E94450217C020913301D7
S1130AF03091340180913101909132018217930732
S1130B0030F40E94AC0282E080932E0106C084E699
S1130B100E94450281E080932E010000DF91CF9175
S1130B200895CF93DF93CDB7DEB780912E01882F40
S1130B3090E08130910569F08230910589F0892B2C
S1130B4009F015C088E20E94060180E10E94F100CC
S1130B500EC080E30E94060188E00E94F10007C0F5
S1130B6088E10E94060180E20E94F1000000DF910A
S1130B70CF910895CF93DF93CDB7DEB784EC90E0A7
S1130B8027E630E0FC013183208381EC90E021EC06
S1130B9030E0F90120812869FC0120837894000069
S1130BA0DF91CF910895CF93DF93CDB7DEB78091D6
S1130BB03501DF91CF910895CF93DF931F92CDB785
S1130BC0DEB78983000080EC90E0FC018081882FEF
S1130BD090E080729927892BB1F386EC90E029810B
S1130BE0FC01208300000F90DF91CF9108951F92A4
S1130BF00F9200905F000F9211242F933F934F9315
S1130C005F936F937F938F939F93AF93BF93EF9370
S1130C10FF93CF93DF931F92CDB7DEB786EC90E0BE
S1130C20FC018081898389818033D8F089818A336A
S1130C30C0F48091010190910201880F991F9C01D9
S1130C40220F331F220F331F280F391F8981882F4A
S1130C5090E0820F931FC09790930201809301014B
S1130C6037C089818D30D9F48091010190910201BE
S1130C7085369105A0F48091010190910201809341
S1130C80350110920201109201018FE60E94DC05E9
S1130C908BE60E94DC058DE00E94DC0519C080E231
S1130CA00E94DC0585E60E94DC0582E70E94DC05E3
S1130CB082E70E94DC058FE60E94DC0582E70E9441
S1130CC0DC058DE00E94DC05109202011092010106
S1130CD000000F90DF91CF91FF91EF91BF91AF9101
S1130CE09F918F917F916F915F914F913F912F9140
S1130CF00F9000925F000F901F9018950E94F206CB
S1130D0088F09F5798F0B92F9927B751B0F0E1F0C8
S1130D10660F771F881F991F1AF0BA95C9F714C078
S1130D20B13091F00E940C07B1E008950C940C07C7
S1130D30672F782F8827B85F39F0B93FCCF38695B1
S1130D4077956795B395D9F73EF49095809570950E
S1130D5061957F4F8F4F9F4F0895E89409C097FB8B
S1130D603EF490958095709561957F4F8F4F9F4F7E
S1130D709923A9F0F92F96E9BB279395F6958795C2
S1130D8077956795B795F111F8CFFAF4BB0F11F485
S1130D9060FF1BC06F5F7F4F8F4F9F4F16C088232C
S1130DA011F096E911C0772321F09EE8872F762F62
S1130DB005C0662371F096E8862F70E060E02AF0A3
S1130DC09A95660F771F881FDAF7880F969587958F
S1130DD097F9089557FD9058440F551F59F05F3FF8
S1130DE071F04795880F97FB991F61F09F3F79F049
S1130DF087950895121613061406551FF2CF4695CB
S1130E00F1DF08C0161617061806991FF1CF86954C
S1130E107105610508940895E894BB276627772730
S1130E20CB0197F908950E9426070C9497070E9416
S1130E30890738F00E94900720F0952311F00C9454
S1130E4080070C94860711240C940D070E94EA066F
S1130E5070F3959FC1F3950F50E0551F629FF00109
S1130E60729FBB27F00DB11D639FAA27F00DB11D22
S1130E70AA1F649F6627B00DA11D661F829F2227AB
S1130E80B00DA11D621F739FB00DA11D621F839F32
S1130E90A00D611D221F749F3327A00D611D231F08
S1130EA0849F600D211D822F762F6A2F11249F5756
S1130EB050409AF0F1F088234AF0EE0FFF1FBB1F59
S1130EC0661F771F881F91505040A9F79E3F510518
S1130ED080F00C9480070C940D075F3FE4F3983E78
S1130EE0D4F3869577956795B795F795E7959F5FC2
S1130EF0C1F7FE2B880F911D9695879597F9089554
S1130F0097F99F6780E870E060E008959FEF80ECB8
S1130F10089500240A94161617061806090608955B
S1130F2000240A9412161306140605060895092EC1
S1130F300394000C11F4882352F0BB0F40F4BF2B30
S1130F4011F460FF04C06F5F7F4F8F4F9F4F089570
S1130F50A29FB001B39FC001A39F700D811D1124F6
S1130F60911DB29F700D811D1124911D0895F89457
S1050F70FFCFAD
S9030000FC
